:020000040000FA
:100000003020372000300906031946200130090648
:10001000031949200230090603194C200330090650
:100020000319232004300906031927200530090687
:1000300003192A200630090603192D200730090666
:1000400003192320022800308700880008000F30A1
:1000500087000800F03087000800FF3087000800A4
:1000600083160313F1308F308312031308008316B5
:100070000313FF3085008600870188010F30890057
:1000800003178801890183120313080001308700D8
:0E0090000800023087000800033087000800D7
:02009E0000342C
:0200A00000342A
:02400E00F42399
:02401000FF3E71
:00000001FF
